:100000000C9463000C948B000C948B000C948B006C
:100010000C948B000C948B000C948B000C948B0034
:100020000C948B000C948B000C948B000C948B0024
:100030000C948B000C948B000C948B000C948B0014
:100040000C94F90B0C948B000C94690C0C94430CDD
:100050000C948B000C948B000C948B000C948B00F4
:100060000C949B0C0C948B000000000024002700D3
:100070002A000000000023002600290000000000E4
:10008000250028002B0004040404040404040202D4
:100090000202020203030303030301020408102007
:1000A0004080010204081020010204081020000012
:1000B0000008000201000003040700000000000027
:1000C0000000BA0DA40F11241FBECFEFD8E0DEBF91
:1000D000CDBF23E0A8E8B1E001C01D92A931B2076D
:1000E000E1F711E0A0E0B1E0E6E6F7E202C005903A
:1000F0000D92A838B107D9F710E0C2E6D0E004C0ED
:100100002197FE010E94AE11C136D107C9F70E94A6
:10011000070E0C94A6130C940000833081F028F491
:10012000813099F08230A9F008958730A9F08830A5
:10013000C9F08430B1F4809180008F7D03C080913C
:1001400080008F7780938000089584B58F7784BD79
:10015000089584B58F7DFBCF8091B0008F77809319
:10016000B00008958091B0008F7DF9CF1F93CF9399
:10017000DF93282F30E0F901E255FF4F8491F90118
:10018000E656FF4FD491F901EA57FF4FC491CC23B3
:10019000A9F0162F81110E948D00EC2FF0E0EE0FD8
:1001A000FF1FE458FF4FA591B4918FB7F894EC91DD
:1001B000111108C0D095DE23DC938FBFDF91CF9162
:1001C0001F910895DE2BF8CF3FB7F894809153022A
:1001D00090915402A0915502B091560226B5A89B69
:1001E00005C02F3F19F00196A11DB11D3FBFBA2FC9
:1001F000A92F982F8827BC01CD01620F711D811D89
:10020000911D42E0660F771F881F991F4A95D1F70D
:1002100008958F929F92AF92BF92CF92DF92EF920A
:10022000FF924B015C010E94E4006B017C010E9483
:10023000E4006C197D098E099F09683E73408105B1
:100240009105A8F321E0821A9108A108B10888EE6F
:10025000C80E83E0D81EE11CF11C81149104A10496
:10026000B10429F7FF90EF90DF90CF90BF90AF904F
:100270009F908F90089508950895FC012481358101
:100280006217730748F480819181009729F0860FE7
:10029000971FFC018081089580E008950895AF9232
:1002A000BF92CF92DF92EF92FF920F931F93CF9363
:1002B000DF936C017B018B01040F151FEB015E01C5
:1002C000AE18BF08C017D10759F06991D601ED915A
:1002D000FC910190F081E02DC6010995892B79F7F9
:1002E000C501DF91CF911F910F91FF90EF90DF90AB
:1002F000CF90BF90AF900895FC01538D448D252F72
:1003000030E0842F90E0821B930B541710F0CF96AF
:10031000089501970895FC01918D828D981761F0E1
:10032000A28DAE0FBF2FB11D5D968C91928D9F5FF8
:100330009F73928F90E008958FEF9FEF0895FC01D7
:10034000918D828D981731F0828DE80FF11D858D8A
:1003500090E008958FEF9FEF0895FC01918D228D1D
:10036000892F90E0805C9F4F821B91098F739927A2
:10037000089588E592E00E94AD0121E0892B09F4FF
:1003800020E0822F089580E090E0892B29F00E94E0
:10039000B90181110C9400000895FC01A48DA80FEF
:1003A000B92FB11DA35ABF4F2C91848D90E00196B7
:1003B0008F739927848FA689B7892C93A089B189D7
:1003C0008C91837080648C93938D848D981306C078
:1003D0000288F389E02D80818F7D80830895EF92DC
:1003E000FF920F931F93CF93DF93EC0181E0888FEF
:1003F0009B8D8C8D98131AC0E889F989808185FFBF
:1004000015C09FB7F894EE89FF896083E889F98960
:1004100080818370806480839FBF81E090E0DF9162
:10042000CF911F910F91FF90EF900895F62E0B8DB5
:1004300010E00F5F1F4F0F731127E02E8C8D8E1170
:100440000CC00FB607FCFACFE889F989808185FFD7
:10045000F5CFCE010E94CD01F1CFEB8DEC0FFD2F3A
:10046000F11DE35AFF4FF0829FB7F8940B8FEA8992
:10047000FB8980818062CFCFCF93DF93EC01888DA1
:100480008823B9F0AA89BB89E889F9898C9185FD0F
:1004900003C0808186FD0DC00FB607FCF7CF8C919D
:1004A00085FFF2CF808185FFEDCFCE010E94CD0187
:1004B000E9CFDF91CF9108952091F001260F3327E6
:1004C000331F21323105ECF420911402FC0190E03D
:1004D00080E0243069F082E00895A091F00121913C
:1004E000AC0140535E4FA40FB52FB11D2C93019664
:1004F000861798F38091F001680F6093F00180E017
:10050000089581E008951092140281E0809316020C
:100510001092150261E082E10E94B60061E083E181
:100520000E94B600E9EBF0E080818E7F80838081BD
:100530008D7F808388E48093B80085E48093BC003D
:100540000895CF93DF9391E09093CF018823B9F082
:10055000C091B800D091BA008091BC008A7B809392
:10056000BC0060E082E10E94B60060E083E10E948E
:10057000B6000E948302D093BA00C093B800DF9106
:10058000CF9108950895E091410280914002E817CB
:1005900030F4F0E0E655FE4F808190E008958FEF53
:1005A0009FEF089590914102809140022FEF3FEF1D
:1005B000981748F4E92FF0E0E655FE4F208130E02F
:1005C0009F5F90934102C9010895809140029091EC
:1005D0004102891B990B0895CF92DF92EF92FF920F
:1005E0000F931F93CF93DF937C01CB018A0120915E
:1005F000A901222389F0EB016B01C40ED51ECC1595
:10060000DD0569F06991D701ED91FC910190F081D0
:10061000E02DC7010995F3CF642F0E945C02C80149
:10062000DF91CF911F910F91FF90EF90DF90CF90CE
:100630000895CF93DF931F92CDB7DEB769832091E2
:10064000A9012223F9F020913E02203258F021E046
:1006500030E0FC013383228390E080E00F90DF9153
:10066000CF91089580913F02E82FF0E0E757FE4FC9
:10067000998190838F5F80933F0280933E0281E057
:1006800090E0ECCF61E0CE0101960E945C02F7CFD2
:10069000CF92DF92EF92FF920F931F93CF93DF934E
:1006A000FC01C48121E02093A901C093880110922C
:1006B0003F0210923E028385682B85EF92E00E94F4
:1006C0001903D0913E02D13208F092C00E94E4009A
:1006D0006B017C0180911402811165C082E08093DE
:1006E000140281E0809316028FEF80931302109220
:1006F0003802D0933702A9E8B1E0E7E1F2E080E008
:10070000D81385C01092390280913902CC0FC82BC2
:10071000C093390280911502813009F07CC010929B
:1007200015020E94E4006B017C01809139028093E4
:10073000BB008091CB019091CC01A091CD01B091F3
:10074000CE01892B8A2B8B2B99F00E94E40000911B
:10075000CB011091CC012091CD013091CE016C19CB
:100760007D098E099F090617170728073907E0F149
:100770008091BC0083FDD9CF85EC8093BC000E94A2
:10078000E4006B017C0180911402823009F445C0C1
:10079000809113028F3F61F180911302803241F109
:1007A0008091130225C08091CB019091CC01A09142
:1007B000CD01B091CE01892B8A2B8B2B09F48ACFE6
:1007C0000E94E4000091CB011091CC012091CD0159
:1007D0003091CE016C197D098E099F090617170704
:1007E0002807390708F076CF8091CA010E94A1023C
:1007F00010923F0210923E021092A901DF91CF9118
:100800001F910F91FF90EF90DF90CF9008959D91F1
:1008100091938F5F75CF85EEB0CF8091CB01909192
:10082000CC01A091CD01B091CE01892B8A2B8B2BCD
:1008300009F4A9CF0E94E4000091CB011091CC01F2
:100840002091CD013091CE016C197D098E099F094F
:10085000061717072807390708F095CFC5CF90E08E
:1008600080E00895FC012281338121153105C1F01A
:10087000408151812150310933832283220F331F5C
:10088000220F331F240F351FF90180819181A2812E
:10089000B381FB0180839183A283B38381E00895B8
:1008A00080E00895FC01228133812115310571F02A
:1008B000408151812150310933832283240F351F18
:1008C000F9018081FB01808381E0089580E0089533
:1008D0000F931F93CF938C01C62F0E9448036C2F58
:1008E0006460C8010E9448036C2F6B7FC8010E949E
:1008F000480383EC90E00197F1F7CF911F910F919E
:1009000008950F931F93CF93DF938C01D62FC42F9D
:10091000607F642B0E94680480E1D89FB00111249D
:100920006C2BC801DF91CF911F910F910C9468043B
:1009300040E060E887E093E00C94810440E061E0EF
:1009400087E093E00E9481048BE39FE10197F1F738
:10095000089541E00E94810481E090E00895CF93E2
:10096000DF93EC0188819981009711F00E94501269
:10097000198218821D821C821B821A82DF91CF91FC
:100980000895FC0180819181009711F00C94501220
:100990000895CF92DF92EF92FF920F931F93CF9320
:1009A000DF93EC01088519858C819D810817190753
:1009B00051F480E0DF91CF911F910F91FF90EF9064
:1009C000DF90CF9008956A017B0186E090E00E945D
:1009D000B411FC0115821482009759F3C082D182B0
:1009E000E282F3820F5F1F4F28813981232B41F46C
:1009F000998388839B838A831987088781E0DACF6C
:100A0000EA81FB8195838483F5CFFB01019000206F
:100A1000E9F73197AF01461B570BDC01ED91FC91D3
:100A20000280F381E02D09948F929F92AF92BF9242
:100A3000EF92FF920F931F93CF93DF93CDB7DEB763
:100A4000A1970FB6F894DEBF0FBECDBF7C01FA01AF
:100A5000CB0119A2223008F42AE08E010F5D1F4F4E
:100A6000822E912CB12CA12CBF01A50194010E94D2
:100A70001C11F901CA016A300CF5605DD8016E9352
:100A80008D01232B242B252B79F790E080E0109704
:100A900021F0BD01C7010E940505A1960FB6F8948B
:100AA000DEBF0FBECDBFDF91CF911F910F91FF90A1
:100AB000EF90BF90AF909F908F900895695CDECFCC
:100AC0000F931F93CF93DF93EC0188819981009757
:100AD00059F02A813B812617370730F081E0DF91FA
:100AE000CF911F910F9108958B016F5F7F4F0E94EF
:100AF000D912009759F0998388831B830A832C812C
:100B00003D81232B59F7FC011082E8CF80E0E7CF2D
:100B1000EF92FF920F931F93CF93DF9361157105AF
:100B200041F480E0DF91CF911F910F91FF90EF9002
:100B3000089541155105B1F07B01EC010C811D8137
:100B4000040F151FB8010E946005882351F3288106
:100B500039818C819D81B701820F931F0E949F1361
:100B60001D830C8381E0DECFCF93DF9300D0CDB720
:100B7000DEB769831A8241E050E0BE016F5F7F4FAC
:100B80000E9488050F900F90DF91CF910895EF920A
:100B9000FF920F931F93CF93DF93EC017B018A01A8
:100BA000BA010E94600581110BC0CE010E94AF0402
:100BB000CE01DF91CF911F910F91FF90EF9008959B
:100BC0001D830C83B701888199810E949F13F0CF08
:100BD000FB0101900020E9F73197AF01461B570B4D
:100BE0000C94C7050F931F93CF93DF93CDB7DEB758
:100BF000A2970FB6F894DEBF0FBECDBF8C01CB011C
:100C0000BA01F801118210821382128215821482B5
:100C10002AE0AE014F5F5F4F0E94C810BE016F5FB8
:100C20007F4FC8010E94E805A2960FB6F894DEBF78
:100C30000FBECDBFDF91CF911F910F910895FC01A1
:100C4000118210821382128215821482FB0101909C
:100C50000020E9F73197AF01461B570B0C94C705ED
:100C60002F923F924F925F926F927F928F929F92BC
:100C7000AF92BF92CF92DF92EF92FF920F931F93AA
:100C8000CF93DF93CDB7DEB7CC5DD2400FB6F894EB
:100C9000DEBF0FBECDBF8091050390910603892B67
:100CA00009F48DC3CE0101967C018E0103541D4FC2
:100CB0006C01C552DD4F99838883CB5DD24063E6DA
:100CC00071E0C6010E941F0697E0C90ED11CC01634
:100CD000D106A9F7912C812CD12CC12C87E0782E3C
:100CE0006624639480910503909106038816990603
:100CF0000CF0BDC0A4E6CA16D1040CF0BCC0B4010F
:100D000081E093E00E943D0190ED980F9230E8F56C
:100D100063E671E0C8010E941F068091050390916F
:100D20000603881699068CF4B40181E093E00E94D2
:100D30003D0190ED980F923040F4682FC8010E9459
:100D4000B405BFEF8B1A9B0AE8CF7C9C50017D9CB9
:100D5000B00C1124AE0CBF1CF801608171816115CB
:100D6000710579F044815581C5010E94C705D501FF
:100D700016966C92BFEFCB1ADB0AC8010E94C10421
:100D8000B1CFC5010E94AF04F2CFEFEF8E1A9E0AD9
:100D900098ED980F943028F0982F9D7F9D3209F0A0
:100DA000A1CFD80111961C921E9213961C921E92EE
:100DB000129715961C921E921497C953DD4F888383
:100DC000C75CD240C853DD4F1882C85CD240BE0118
:100DD00069537D4FC8010E94E8057C9C50017D9CB1
:100DE000B00C1124AE0CBF1CF501808191810097DD
:100DF00031F1D8016D917C91119761157105E9F080
:100E00004281538114962D913C9142175307A8F0CB
:100E10000E949F13F80184819581D50115969C93BA
:100E20008E93149715821482C8010E94C104F501A3
:100E30001682FFEFCF1ADF0A55CF0E945012F80139
:100E400080819181D50111969C938E9382819381AB
:100E500013969C938E9312978481958115969C93FB
:100E60008E9314971182108213821282DBCFC114E9
:100E7000D10409F475C2D80111961C921E921396E2
:100E80001C921E92129719961C921E9218978FEF21
:100E90009FEF17969C938E93169780E490E015969B
:100EA0009C938E931497C153DD4F19821882CF5CA7
:100EB000D240CF52DD4F99838883C15DD2400E94DA
:100EC000B411C353DD4F99838883CD5CD240912CFC
:100ED000812CF701248035808681882309F451C054
:100EE000B12CA12C412C512C3201A214B304D9F005
:100EF000B501C7010E943D01803341F4440C551CEB
:100F0000661C771CFFEFAF1ABF0AEFCF813339F4AD
:100F1000440C551C661C771C689440F8F3CF44249D
:100F20004A94542C3201B301A201C8010E94C904A1
:100F3000FFEF8F1A9F0A27E0E20EF11C8C149D042C
:100F400044F2C153DD4F88819981CF5CD240892B17
:100F500009F4ACC0BE0169537D4FCE0183539D4F50
:100F60000E945204C953DD4F4881C75CD240042E11
:100F7000000C550B660B770B705CC8010E94C9040E
:100F8000E0CF232829F00190F081E02D309721F463
:100F900010925702E7E5F2E0B080B8E2BB1223C03E
:100FA000C153DD4F88819981CF5CD240CF52DD4F54
:100FB00028813981C15DD2408217930708F0B8CFEC
:100FC000C353DD4FE881F981CD5CD2409C012F5F96
:100FD0003F4FC153DD4F39832883CF5CD240E80FA8
:100FE000F91FB082A5CFE9E2BE120AC2C153DD4F9C
:100FF00088819981CF5CD240BE0169537D4F0097B3
:1010000029F1C353DD4FE881F981CD5CD240E80F6F
:10101000F91F31978081C953DD4F8883C75CD24067
:101020008832A1F0CE0183539D4F0E945204C953D0
:10103000DD4F4881C75CD240042E000C550B660B77
:10104000770B705CC8010E94C904D0CFCE018353D6
:101050009D4F0E9452046CCFFDE2BF1609F4BAC145
:101060004AE2B41619F0AFE2BA12B4C102970CF01A
:10107000B1C1CF52DD4F88819981C15DD24028171F
:10108000390708F055CFC353DD4F88819981CD5C76
:10109000D240A9014F5F5F4FC153DD4F5983488351
:1010A000CF5CD240280F391FF9019BCFC753DD4FCA
:1010B00019821882C95CD24080E490E0C553DD4FAC
:1010C00099838883CB5CD24080E091E00E94B41188
:1010D000C953DD4F99838883C75CD240D8018D9175
:1010E0009C911197009709F4FAC018962D913C91A4
:1010F0001997232B09F4EFC0FC01C080D180E28056
:10110000F380F1E0CF16D104E104F0E4FF060CF423
:101110009FC0BE0169527D4FCE0189539D4F0E94F1
:101120003204882319F1BE016D527D4FCE018953DF
:101130009D4F0E9432048823C9F0C952DD4F288197
:1011400039814A815B81C75DD240CD52DD4F6881D4
:1011500079818A819B81C35DD240ABE2CA16C1F01E
:10116000AC1554F0BAE2CB1609F46FC0C12CD12CE7
:10117000E12C20E8F22ECFC0EDE2CE1609F460C0DB
:10118000FFE2CF12F3CF0E948F11CA01B90104C050
:10119000620F731F841F951F61157105810520E87B
:1011A000920721F3C753DD4F28813981C95CD240B2
:1011B000C553DD4F48815981CB5CD2402417350798
:1011C000D0F4C953DD4F48815981C75CD240F90141
:1011D0003196C753DD4FF983E883C95CD240220FB3
:1011E000331F220F331F240F351FD9016D937D93B9
:1011F0008D939C931397F80180859185892B09F431
:101200006DCF80819181009709F468CFDC0114963D
:101210002D913C91318320830E945012F8018081EE
:101220009181892B11F413821282D80118968D9125
:101230009C911997019719969C938E9318974ECF6E
:10124000621B730B840B950BA7CF0E940C11A4CFCC
:10125000FC01248135812D933C930E945012F801AA
:1012600080819181892B11F413821282D801189602
:101270008D919C911997019719969C938E9318972D
:10128000C753DD4F88819981C95CD240C553DD4F7A
:1012900028813981CB5CD2408217930708F01ECF9A
:1012A000C953DD4F28813981C75CD240AC014F5F03
:1012B0005F4FC753DD4F59834883C95CD240880FC5
:1012C000991F880F991F820F931FFC01C082D18242
:1012D000E282F38203CFC12CD12C7601D1CFBE01A3
:1012E0006D527D4FCE0189539D4F0E943204882359
:1012F00009F43CCFC753DD4F88819981C95CD24046
:10130000892B09F033CFCD52DD4FC880D980EA80D8
:10131000FB80C35DD240C953DD4F88819981C75C92
:10132000D240009711F00E945012C353DD4F8881C4
:101330009981CD5CD240009711F00E945012D801E3
:101340008D919C91009789F0FC0124813581D80111
:101350002D933C930E945012F80180819181F2CF2D
:10136000C12CD12CE12C90E8F92E07501109C801AD
:101370000E94C104C552DD4F88819981CB5DD24066
:101380008017910791F7C701B601C452DD4F0FB620
:10139000F894DEBF0FBECDBFDF91CF911F910F91AB
:1013A000FF90EF90DF90CF90BF90AF909F908F9085
:1013B0007F906F905F904F903F902F900895C12C39
:1013C000D12CE12C80E8F82EDECF81E090E0ABE27A
:1013D000BA1242CEBE0169537D4FCE0183539D4F59
:1013E0000E945204C953DD4F4881C75CD240042E8D
:1013F000000C550B660B770B705CC8010E94C9048A
:10140000C153DD4F28813981CF5CD2402115310590
:1014100009F42FCEC353DD4FE881F981CD5CD24072
:10142000E20FF31F31978081C953DD4F8883C75C7A
:10143000D240883209F41DCE8B3239F28D3229F236
:101440008A3211F08F3219F482E090E0C0CFBBE213
:10145000BB1609F40ECEEDE2BE1609F40ACE90E0FA
:1014600080E0FECD85ED8093BC008091CB01909112
:10147000CC01A091CD01B091CE010796A11DB11D67
:1014800023E0B695A795979587952A95D1F7209152
:10149000BC0024FD03C01092140208954091CB01BA
:1014A0005091CC016091CD017091CE01452B462B1E
:1014B000472B69F30097A105B10541F02AE22A956F
:1014C000F1F700C00197A109B109E1CF8091CA01EC
:1014D0000C94A102CF92DF92EF92FF921F93CF93D1
:1014E000DF93CDB7DEB768970FB6F894DEBF0FBEB7
:1014F000CDBF823409F04BC0809105039091060363
:10150000009761F00197E0910103F0910203E80F69
:10151000F91F909306038093050310821E861D8693
:10152000188A1F861A8A198A609101037091020332
:101530006115710541F04091050350910603CE01FC
:101540000D960E94C70563E671E0CE0143960E94A6
:101550001F0663E671E0CE0107960E941F06ED8428
:10156000FE84C988DA88CE0CDF1CCE14DF0409F4AF
:10157000E5C0F70111917F0180ED810F823008F005
:10158000B5C0612FCE0107960E94B405EECF83341B
:1015900039F463E671E081E093E00E94E805BECF94
:1015A000883219F58091050390910603009799F010
:1015B000E0910103F0910203309799F410925702E1
:1015C000E7E5F2E080818053823028F46AE281E02E
:1015D00093E00E94B40568E281E093E00E94B405C4
:1015E0009DCF0197E80FF91FEDCF682F8D33A1F73D
:1015F00063E671E0CE0101960E941F060E9430064C
:101600006B017C010E949E04C114D104E10480E8B6
:10161000F80691F564E571E088E592E00E94050521
:1016200061E671E088E592E00E94050564E671E0FC
:1016300087E093E00E9405056CED75E080E090E0A6
:101640000E94090163E671E081E093E00E94E805F1
:101650000E949E04CE0101960E94C10468960FB6B6
:10166000F894DEBF0FBECDBFDF91CF911F91FF90E9
:10167000EF90DF90CF90089563E771E088E592E006
:101680000E9405052AE0B701A601F7FE0DC06DE234
:1016900088E592E00E94EF0144275527BA014C19D2
:1016A0005D096E097F092AE088E592E00E94140531
:1016B00061E671E088E592E00E9405052AE0B70145
:1016C000A601F7FE0EC041E06DE287E093E00E94C4
:1016D000810444275527BA014C195D096E097F0919
:1016E0002AE087E093E00E941405A6CF8B859C85B5
:1016F000892B01F142E050E070E060E08F81988535
:101700000E94A80FAB01BC01CE0101960E94F20518
:101710004D815E8169817A81CE0143960E94880560
:10172000CE0101960E94C10463E671E0CE010796E6
:101730000E94E805612FCE01439626CF8B859C85BC
:10174000892BD1F042E050E070E060E08F81988515
:101750000E94A80FAB01BC01CE0101960E94F205C8
:101760004D815E8169817A81CE0143960E94880510
:10177000CE0101960E94C104CE0107960E94C104C9
:101780006BE771E0CE0101960E941F064F89588DCC
:101790006B897C89CE0101960E948805811104C065
:1017A000CE0101960E94AF044D815E8169817A81EC
:1017B00088E592E00E944F0161E671E088E592E0E1
:1017C0000E940505CE0101960E94C1040E949E045C
:1017D0000E9498044F89588D6B897C8987E093E03B
:1017E0000E944F01CE0143960E94C104CE010D9686
:1017F00033CF1F920F920FB60F9211242F933F9366
:101800008F939F93AF93BF9380914F02909150021B
:10181000A0915102B091520230914E0223E0230F69
:101820002D3758F50196A11DB11D20934E028093CE
:101830004F0290935002A0935102B09352028091B4
:10184000530290915402A0915502B0915602019614
:10185000A11DB11D8093530290935402A093550291
:10186000B0935602BF91AF919F918F913F912F916D
:101870000F900FBE0F901F90189526E8230F029629
:10188000A11DB11DD2CF1F920F920FB60F9211243E
:101890002F933F934F935F936F937F938F939F9378
:1018A000AF93BF93EF93FF9388E592E00E94CD0141
:1018B000FF91EF91BF91AF919F918F917F916F9128
:1018C0005F914F913F912F910F900FBE0F901F90FE
:1018D00018951F920F920FB60F9211242F938F938A
:1018E0009F93EF93FF93E0916802F09169028081EA
:1018F000E0916E02F0916F0282FD1BC09081809199
:1019000071028F5F8F7320917202821741F0E09114
:101910007102F0E0E85AFD4F958F80937102FF91BC
:10192000EF919F918F912F910F900FBE0F901F906D
:1019300018958081F4CF1F920F920FB60F92112449
:101940002F933F934F935F936F937F938F939F93C7
:10195000AF93BF93EF93FF938091B900887F803658
:1019600009F44AC0F0F5883209F4A7C018F58031AF
:1019700009F49BC0B8F4882309F4F9C0883009F44D
:1019800094C0FF91EF91BF91AF919F918F917F9103
:101990006F915F914F913F912F910F900FBE0F90DC
:1019A0001F901895883109F488C0803251F78093D0
:1019B000130214C0803409F49DC040F48033B9F39D
:1019C0008833F9F68093130285ECB0C0803509F4B2
:1019D00085C0883509F496C0883499F60E94320A89
:1019E000D0CF883909F48CC038F5883729F050F405
:1019F000883611F0803729F683E080931402109224
:101A0000120257C0883809F47BC0803919F0803839
:101A100009F0B7CF80911202803208F071C0E091D6
:101A2000120281E08E0F809312028091BB00F0E0E1
:101A3000EE50FE4F80833DC0803B39F0E0F4803AA9
:101A400009F479C0883A09F09CCF84E080931402AD
:101A50001092F1011092F001E0913C02F0913D02F0
:101A600009958091F00181110FC081E08093F00110
:101A70001092D00109C0803C09F4A6CF883C09F43B
:101A8000A3CF883B09F07DCFE091F10181E08E0F7B
:101A90008093F101F0E0E053FE4F80818093BB0022
:101AA0009091F1018091F00129C0809139028093D9
:101AB000BB0085EC8093BC0064CF9091380280918C
:101AC0003702981758F5E091380281E08E0F809325
:101AD0003802F0E0E95EFD4F8081E9CFE091380205
:101AE00081E08E0F809338028091BB00F0E0E95EC8
:101AF000FD4F808390913802809137029817C8F289
:101B000085E8D8CFE091380281E08E0F80933802CB
:101B10008091BB00F0E0E95EFD4F8083809116026A
:101B200081115CCF81E08093150284EA8093BC0030
:101B30001092140226CF85EC8093BC001092140200
:101B400080911202803230F4E0911202F0E0EE5007
:101B5000FE4F10826091120270E0E0913A02F09123
:101B60003B0282EF91E00995109212020ACF109287
:101B7000130234CFE8E5F2E01382128288EE93E09C
:101B8000A0E0B0E084839583A683B78328E231E0A8
:101B90003183208325EC30E03587248724EC30E046
:101BA0003787268720EC30E0318B208B21EC30E02A
:101BB000338B228B22EC30E0358B248B26EC30E00B
:101BC000378B268B118E128E138E148EE5EFF2E07A
:101BD0001382128284839583A683B7838AE391E07C
:101BE00091838083E7E0F3E0138212828CE491E03A
:101BF0009183808387E2848380E1818782E082878A
:101C0000138663E671E081E093E00C941F067894FC
:101C100084B5826084BD84B5816084BD85B58260F1
:101C200085BD85B5816085BD80916E0081608093A2
:101C30006E0010928100809181008260809381000B
:101C4000809181008160809381008091800081601B
:101C5000809380008091B10084608093B100809176
:101C6000B00081608093B00080917A00846080939E
:101C70007A0080917A00826080937A0080917A0065
:101C8000816080937A0080917A00806880937A00E6
:101C90001092C100E0916802F091690282E08083B5
:101CA000E0916402F09165021082E0916602F09189
:101CB00067028FEC808310927002E0916C02F091C9
:101CC0006D0286E08083E0916A02F0916B02808170
:101CD00080618083E0916A02F0916B02808188606C
:101CE0008083E0916A02F0916B028081806880833A
:101CF000E0916A02F0916B0280818F7D808324E203
:101D000031E0A0E1B1E08D919D919927FC01E6566B
:101D1000FF4F44918A579F4FFC0184918823C9F05B
:101D200090E0880F991FFC01E859FF4FC591D491AD
:101D3000FC01E458FF4F659174919FB7F894588166
:101D4000842F809585238883EB01E8814E2B48837F
:101D50009FBF2A173B07B9F610924102109240022A
:101D600010923F0210923E020E9483028BE391E0A8
:101D700090933D0280933C028CE391E090933B0270
:101D800080933A020E94830210920C038091110307
:101D9000823018F098E090930C0380930F0362E375
:101DA00070E080E090E00E9409016091120387E0FA
:101DB00093E00E94480368EE73E080E090E00E94A8
:101DC000090160E387E093E00E946804CBE4D6E475
:101DD000CE010197F1F760E387E093E00E94680489
:101DE0002197F1F760E387E093E00E94680483E5C0
:101DF00092E00197F1F760E287E093E00E946804C7
:101E000060910C03606240E087E093E00E948104EF
:101E100084E080930D0340E06CE087E093E00E9453
:101E200081040E949E0482E080930E0340E066E0FD
:101E300087E093E00E94810440E062E087E093E065
:101E40000E9481048BE39FE10197F1F788E0809382
:101E5000120360E087E093E00E9448030E949E0422
:101E60000E94980461E871E087E093E00E94050514
:101E700060EB74E080E090E00E9409010E949E0403
:101E8000AA24A39490E0E92E90E0F92E88E592E050
:101E90000E94AD01181619063CF488E592E00E94F4
:101EA0008B0181110E946A0A00E111E0D0E0C0E0DC
:101EB000F801419151918F019A013327F901E255BF
:101EC000FF4F8491F901E656FF4FB490F901EA57AC
:101ED000FF4F94909A012E5B3D4F6901911012C003
:101EE000F601808181111DC0A082FE01EA5FFE4FD4
:101EF00080810E946A0A6CE271E080E090E00E94BA
:101F0000090111C081110E948D00E92DF0E0EE0F52
:101F1000FF1FEE58FF4FA591B491EC91BE2201F343
:101F200080E0F60180832196CA30D10509F0C0CF48
:101F3000E114F10409F4AACF0E94B901882309F43D
:101F4000A5CF0E940000A2CF81E093E00C94C104D1
:101F5000B0E0A0E0EEEAFFE00C944A115C016B01F6
:101F60007A016115710519F0FB0191838083E114F9
:101F7000F10451F0C7010297839730F040E030E060
:101F800020E090E072C05E01E5012196F50110812C
:101F9000812F90E00E94BF10892BA9F71D3201F517
:101FA0002196F501118101E0E114F10409F4DAC090
:101FB000F0E1EF16F10409F082C0103359F4888182
:101FC0008F7D883509F076C0198122960260F0E194
:101FD000EF2EF12C812C912CA12C88E0B82E8CC0F6
:101FE0001B3221F4E5012296F501118100E0DCCFDE
:101FF000EAE0EE16F10409F4BBC0F0E1EF16F104DB
:1020000009F06DC0E7CF78E0E72EF12C812C912C00
:10201000A12C60E1B62E70C03FE9310F3A3128F4AF
:1020200039EA332E80C021E09AC0302F3170C114BC
:10203000D10431F0222309F12197F601D183C08325
:1020400027FF21C060E070E080E090E8311104C01B
:102050006FEF7FEF8FEF9FE722E230E030931403C2
:1020600020931303462F372F282F642F732F822F8F
:10207000CDB7DEB7E1E10C94661101FF04C02297F1
:10208000F601D183C083332341F0909580957095FC
:1020900061957F4F8F4F9F4FE5CF97FFE3CF82E250
:1020A00090E090931403809313036FEF7FEF8FEF13
:1020B0009FE7D8CF10E3E114F10409F4A4CF28E09E
:1020C000E216F10409F4A2CF0CF092CF812C912CEE
:1020D000A12CE0E4BE2E82E0E816F10469F060E095
:1020E00070E080E090E897010F2C000C440B550B3A
:1020F0000E941C1149015A0120E060E070E0CB0110
:1021000027010F2C000C66087708FE0150ED352ED4
:10211000310E39E0331540F43FEB310F3A3108F01E
:102120007BCF49EC342E310E3E141F040CF07DCFD2
:1021300027FD15C086169706A806B90678F0A301F4
:1021400092010E940C11630D711D811D911D613062
:102150007105810520E8920708F465CF2FEF2196DD
:102160001081D3CF103309F42ACF2AE0E22EF12CCC
:102170009CEC892E982CA82C9CE0B92EBDCF9111F7
:102180000C94F910803219F089508550C8F70895E1
:10219000BB272A3051F4992342F4BDE290958095F3
:1021A000709561957F4F8F4F9F4F0C94D810BB2730
:1021B000FA01A62F6217710581059105330B30FBDB
:1021C00066F0AA27660F771F881F991FAA1FA217FC
:1021D00010F0A21B63953850A9F7A05DAA3308F050
:1021E000A95DA19336F7B111B1931082CA010C9485
:1021F000FC10992788270895DC01FC01672F719155
:102200007723E1F7329704C07C916D9370836291DC
:10221000AE17BF07C8F30895DB018F939F930E9409
:102220003E11BF91AF91A29F800D911DA39F900D74
:10223000B29F900D11240895A1E21A2EAA1BBB1B78
:10224000FD010DC0AA1FBB1FEE1FFF1FA217B30782
:10225000E407F50720F0A21BB30BE40BF50B661F98
:10226000771F881F991F1A9469F76095709580955C
:1022700090959B01AC01BD01CF0108950E94801192
:10228000A59F900DB49F900DA49F800D911D1124CA
:1022900008952F923F924F925F926F927F928F920A
:1022A0009F92AF92BF92CF92DF92EF92FF920F93E5
:1022B0001F93CF93DF93CDB7DEB7CA1BDB0B0FB6EF
:1022C000F894DEBF0FBECDBF09942A8839884888AC
:1022D0005F846E847D848C849B84AA84B984C88442
:1022E000DF80EE80FD800C811B81AA81B981CE0F39
:1022F000D11D0FB6F894DEBF0FBECDBFED0108951E
:10230000A29FB001B39FC001A39F700D811D112436
:10231000911DB29F700D811D1124911D0895052EF0
:1023200097FB1EF400940E94A61157FD07D00E944F
:102330001C1107FC03D04EF40C94A6115095409547
:10234000309521953F4F4F4F5F4F08959095809561
:10235000709561957F4F8F4F9F4F0895EE0FFF1F30
:102360000590F491E02D09940F931F93CF93DF9381
:102370008230910510F482E090E0E0911703F09133
:10238000180330E020E0B0E0A0E0309799F4211588
:10239000310509F44AC0281B390B24303105D8F522
:1023A0008A819B816115710589F1FB019383828389
:1023B000FE0111C0408151810281138148175907E4
:1023C000E0F04817590799F4109761F012960C93B2
:1023D000129713961C933296CF01DF91CF911F91E4
:1023E0000F9108950093170310931803F4CF21154C
:1023F000310551F04217530738F0A901DB019A016A
:10240000BD01DF01F801C1CFEF01F9CF90931803AF
:1024100080931703CDCFFE01E20FF31F81939193B9
:102420002250310939832883D7CF20911503309169
:102430001603232B41F420910201309103013093C4
:1024400016032093150320910001309101012115FD
:10245000310541F42DB73EB740910401509105017B
:10246000241B350BE0911503F0911603E217F307D7
:10247000A0F42E1B3F0B2817390778F0AC014E5FF4
:102480005F4F2417350748F04E0F5F1F5093160318
:1024900040931503819391939FCFF0E0E0E09CCFB0
:1024A000CF93DF930097E9F0FC01329713821282F9
:1024B000A0911703B0911803ED0130E020E01097D0
:1024C000A1F420813181820F931F20911503309157
:1024D00016032817390709F061C0F0931603E0933B
:1024E0001503DF91CF910895EA01CE17DF07E8F5D4
:1024F0004A815B819E0141155105B1F7E901FB83DA
:10250000EA8349915991C40FD51FEC17FD0761F477
:10251000808191810296840F951FE90199838883B8
:10252000828193819B838A83F0E0E0E012968D9113
:102530009C9113970097B9F52D913C911197CD017E
:102540000296820F931F20911503309116032817CE
:10255000390739F6309751F5109218031092170386
:10256000B0931603A0931503BCCFD383C2834081DD
:102570005181840F951FC817D90761F44E5F5F4FD3
:1025800088819981480F591F518340838A819B819B
:10259000938382832115310509F0B0CFF09318039E
:1025A000E09317039ECFFD01DC01C0CF138212829E
:1025B000D7CFB0E0A0E0EFEDF2E10C944B118C012D
:1025C000009751F4CB010E94B4118C01C801CDB722
:1025D000DEB7E0E10C946711FC01E60FF71F9C01E8
:1025E00022503109E217F30708F49DC0D901CD91BB
:1025F000DC911197C617D70798F0C530D10530F395
:10260000CE0104978617970708F3C61BD70B2297AE
:10261000C193D1936D937C93CF010E945012D6CF7A
:102620005B01AC1ABD0A4C018C0E9D1EA0911703D4
:10263000B0911803512C412CF12CE12C109731F55D
:1026400080911503909116038815990509F05CC0D7
:102650004616570608F058C080910001909101017C
:10266000009741F48DB79EB7409104015091050148
:10267000841B950BE817F90708F055C0F093160373
:10268000E0931503F90171836083A0CF8D919C9134
:10269000119712966C90129713967C901397A81529
:1026A000B90559F56C0142E0C40ED11CCA14DB0413
:1026B00020F1AC014A195B09DA011296159780F0F6
:1026C0006282738251834083D9016D937C93E114BC
:1026D000F10471F0D7011396FC93EE93129776CF25
:1026E00022968C0F9D1FF90191838083F301EFCF18
:1026F000F0931803E093170369CF4816590608F4BE
:102700002C017D01D3019ACFCB010E94B4117C0131
:10271000009749F0AE01B8010E949613C8010E94CB
:102720005012870153CF10E000E050CFFB01DC01D5
:1027300002C001900D9241505040D8F70895FB011E
:10274000DC0101900D920020E1F7089510E0C2E64F
:10275000D0E004C0FE010E94AE112196C336D1071D
:06276000C9F7F894FFCF59
:10276600000019038000303128292B2D2A2F3D42E5
:102776000200030004000500060007000800090027
:102786000A000B0000000000EF014F017C013C0233
:10279600AD018B019F01000000001903EC022F041C
:1027A600C202E502D202C30200000000A9044F01E2
:1027B6002F044E01524553554C543A4552524F52EE
:1027C600000D0A00494E56414C494420494E505589
:1027D600542100524553554C543A00455850523AEC
:0827E6000048454C4C4F210056
:00000001FF
